:0400000081317629AB
:10000800803120007F08F600FA0108307A02031CCC
:100018000E280F2811283F283F287A080907E03EB4
:10002800860087011600010403191B281C2835289F
:100038007A080907E03E86008701403FF000413F0B
:10004800F1007008FF3EF200FF30713DF3007A08BE
:100058000907E03E860087017208C03F7308C13F68
:1000680035280130F0007008FA0708307A02031CBE
:100078003E283F2811288B1E4228432848280B1D5C
:100088004628472848280B11911F4B284C2804293B
:100098002100911F5028512804292000911395010F
:1000A80018101708F000F1017008F100F0011608A7
:1000B8007007E90071080318710AEA00EB01EC0106
:1000C8006908F0006A08F1006B08F2006C08F30098
:1000D8007B08F4000130F435FF3E031D6F287435AA
:1000E800C03E86008701403FF007413FF13D423F57
:1000F800F23D433FF33D7B08F5000130F535FF3E07
:10010800031D82287535C03E860087017008C03FF0
:100118007108C13F7208C23F7308C33F0130F00045
:100128007008FB077B08083A031D9B289C28A22817
:10013800FB010130F0007008FC07A228873167270F
:1001480080312000960197011814950199157C08B3
:10015800083A031DB028B1280429FC01F901083028
:100168007902031CB828B928BB28FF28FF2879087A
:10017800F0000130F035FF3E031DBE287035C03E4B
:1001880086008701403FF100413FF200423FF30003
:10019800433FF4007908F5000130F535FF3E031DB3
:1001A800D1287535A03E860087017108C03F7208C6
:1001B800C13F7308C23F7408C33F7908F00001309B
:1001C800F035FF3E031DE4287035C03E86008701E8
:1001D8000030C03F0030C13F0030C23F0030C33F55
:1001E8000130F0007008F90708307902031CFD2877
:1001F800FE28BB28FF28ED010314ED0D042904296E
:100208002000911D0829092972292100911D0D2915
:100218000E29722920009111240014082539F000B4
:100228007008F7007708013A031D1B291C291F29AC
:10023800F801151672297708213A031D2429252962
:100248003D291108F0007808603E860001308700DB
:100258007008810015160130F0007008F80778085A
:10026800083A031D3829392972290130F802722900
:1002780072297708053A031D422943294E2922008D
:100288008E1620004808240091001516F801031462
:10029800F80D72297708243A031D532954296C292B
:1002A800161B572958296C297808483E860087016B
:1002B8000108910015160130F0007008F807780859
:1002C800083A031D682969297229F80172297229D7
:1002D8001516722972297229722972297608200046
:1002E800FF00090088018F31DB2F2000C701C501FD
:1002F8007830210099009801171423008C018D0192
:1003080021008C018D018E011708C139143897001E
:100318002000C50108304502031C93299429962919
:10032800ED29ED2945080907E03E860087010030E0
:10033800C03F0030C13F4508B8000130B835FF3E26
:10034800031DA2293835A03E860001308700003001
:10035800C03F0030C13F0030C23F0030C33F4508B6
:10036800B8000130B835FF3E031DB6293835C03E08
:10037800860087010030C03F0030C13F0030C23FD7
:100388000030C33F4508B8000130B835FF3E031DB3
:10039800C9293835A03E860087010030C03F0030AB
:1003A800C13F0030C23F0030C33F4508583E860079
:1003B800870181014508503E86008701810101308F
:1003C800B8003808C50708304502031CEC29ED2998
:1003D800962921008E1222008E168731BD27813181
:1003E800873111278131FB012000ED01FC018F319C
:1003F8008D2781318F31BA2781312000031A052AD0
:10040800062A0B2A11308F319F2781310B2A2000B1
:10041800C3010030E8000030E7000130E600F430A6
:10042800E5000930B8003808EE001A2A64002000F8
:100438006D08031D202A1A2AC70108304702031C29
:10044800262A272A292A642D642D4708B800013056
:10045800B835FF3E031D2C2A3835A03E860087019B
:100468000330433181367F31810C7F31810C7F31FC
:10047800810C890B352AEF08031D432A442AC92A0F
:100488004308083A031D492A4A2A5E2A4708B80041
:100498000130B835FF3E031D4D2A3835A03E860091
:1004A800013087000030C03F0030C13F0030C23FFC
:1004B8000030C33F4708B8000130B835FF3E031D80
:1004C800612A3835A03E86008701403FB900413F88
:1004D800BA00423FBB00433FBC004708BD000130A3
:1004E800BD35FF3E031D742A3D35A03E8600013010
:1004F80087003908810741313A08813D41313B087D
:10050800813D41313C08813D4708073A031D8D2A4A
:100518008E2A932A0130B8003808C307932A430863
:10052800103A031D982A992A5A2DC5010830450208
:10053800031C9F2AA02AA22AC42AC42A4508B80054
:100548000130B835FF3E031DA52A3835A03E860088
:10055800013087000330433181367F31810C7F3190
:10056800810C7F31810C890BAF2A0130B800380823
:10057800C50708304502031CC22AC32AA22AC42A76
:10058800EF010314EF0D5A2D5A2D4708B80001301A
:10059800B835FF3E031DCC2A3835203E8600013091
:1005A8008700403FB900413FBA00423FBB00433F8C
:1005B800BC004708BD000130BD35FF3E031DE02AE1
:1005C8003D35403E8600013087003908C03F3A0873
:1005D800C13F3B08C23F3C08C33F4708B800013051
:1005E800B835FF3E031DF42A3835A03E8600013099
:1005F8008700403FB900413FBA00423FBB00433F3C
:10060800BC004708BD000130BD35FF3E031D082B67
:100618003D35A03E86008701403FBE00413FBF00F8
:10062800423FC000433FC100BE09BF09C009C1091C
:10063800BE0A0319BF0A0319C00A0319C10A3E08F2
:10064800B9073F08BA3D4008BB3D4108BC3D4708D3
:10065800C2000130C235FF3E031D2E2B4235203E1D
:100668008600013087003908C03F3A08C13F3B087F
:10067800C23F3C08C33F4708B8000130B835FF3EC9
:10068800031D422B3835203E860001308700403F4D
:10069800B900413FBA00423FBB00433FBC00470896
:1006A800BD000130BD35FF3E031D562B3D35403E94
:1006B800860001308700403FBE00413FBF00423FF7
:1006C800C000433FC1004108803AFF003C08803A1F
:1006D8007F02031D792B3B084002031D792B3A0842
:1006E8003F02031D792B39083E0203187C2B7D2B12
:1006F800CD2B4708B8000130B835FF3E031D802BCD
:100708003835203E860001308700403FB900413F20
:10071800BA00423FBB00433FBC004708BD00013060
:10072800BD35FF3E031D942B3D35403E860001300C
:100738008700403FBE00413FBF00423FC000433FEB
:10074800C100BE09BF09C009C109BE0A0319BF0A11
:100758000319C00A0319C10A3E08B9073F08BA3D80
:100768004008BB3D4108BC3D4708C2000130C235C6
:10077800FF3E031DBB2B4235C03E8600013087007B
:100788003908C03F3A08C13F3B08C23F3C08C33F55
:100798001D2C4708B8000130B835FF3E031DD02B8B
:1007A8003835403E860001308700403FB900413F60
:1007B800BA00423FBB00433FBC004708BD000130C0
:1007C800BD35FF3E031DE42B3D35203E860001303C
:1007D8008700403FBE00413FBF00423FC000433F4B
:1007E800C100BE09BF09C009C109BE0A0319BF0A71
:1007F8000319C00A0319C10A3E08B9073F08BA3DE0
:100808004008BB3D4108BC3D4708C2000130C23525
:10081800FF3E031D0B2C4235C03E86000130870089
:100828003908C03F3A08C13F3B08C23F3C08C33FB4
:100838001D2C4708B8000130B835FF3E031D202C99
:100848003835C03E860001308700403FB900413F3F
:10085800BA00423FBB00433FBC006808803AFF0033
:100868003C08803A7F02031D432C3B086702031DA6
:10087800432C3A086602031D432C39086502031805
:10088800462C472C602C4708B8000130B835FF3E8D
:10089800031D4A2C3835C03E860001308700403F92
:1008A800E500413FE600423FE700433FE8004708D4
:1008B800B8003808EE00602C4708073A031D652C7D
:1008C800662C5A2DC60108304602031C6C2C6D2C70
:1008D8006F2C0A2D0A2D46086E060319742C752CE8
:1008E8008B2C4608503E860087010108003A031900
:1008F8007E2C7F2C852C4608503E860087010130CF
:1009080081024608583E860087018101EC2C680860
:10091800803AFF000030803A7F02031D9D2C003092
:100928006702031D9D2C02306602031D9D2C593061
:100938006502031CA02CA12CD52C0130B800460858
:10094800503E86008701380881074608503E8600D9
:10095800870108300102031CB22CB32CEC2CC40113
:1009680008304402031CB92CBA2CBC2CCC2CCC2C3F
:100978004408503E8600870181010130B8003808DC
:10098800C40708304402031CCA2CCB2CBC2CCC2C2A
:100998004608583E8600870181010314810DEC2C1E
:1009A800EC2C4608503E860087010108003A0319DE
:1009B800DE2CDF2CE52C4608503E860087010130EE
:1009C80081024608583E860087018101EC2CEC2CF8
:1009D8004608503E860087010108B800B90138086A
:1009E800A9003908AA000130AB000030AC008531FD
:1009F8006A25813101302000B8003808C607083060
:100A08004602031C082D092D6F2C0A2D6E08093A81
:100A180003190F2D102D342D6E080907E03E8600AE
:100A2800870116000104031D1A2D1B2D342D6E0895
:100A38000907E03E860087019030C03F0130C13F82
:100A48000A308731F127813101308F319F27813179
:100A580020006E08B8003808C80022008E12342D15
:100A680020006E08B800B9013808A9003908AA00A2
:100A78000230AB000030AC0085316A2581310A3084
:100A88008731F12781310D308731F12781310030ED
:100A98002000E8000030E7000130E600F430E5000F
:100AA8000930B8003808EE005A2D5A2D0130B80028
:100AB8003808C70708304702031C632D642D292A0C
:100AC800ED011A2A1A2A1A2A8131762960308600FD
:100AD800003087002F308400003085000530FF008B
:100AE80016001A00FF0B742D04302000B6000030E9
:100AF800B700B401B501AA1F822D832D8E2D2D308C
:100B08008731F12785312000A909AA09A90A031903
:100B1800AA0A932D20308731F1278531932D2000A3
:100B28002A082904031D992D9A2DDE2D2C08803AB8
:100B3800FF0080307F02031DA32D01302B02031814
:100B4800A62DA72DDE2D30308731F1278531422E95
:100B5800422EDE2D0A302000A0000030A1002A0815
:100B6800A301A3072908A201A2078631B02685316F
:100B780020002008AD0036082F3E860087012D088A
:100B880081000A30A0000030A1002A08A301A307B1
:100B98002908A201A20786314326853120002108B1
:100BA800AA01AA072008A901A907FF30B607FF3044
:100BB800B73DDE2D20002A082904031DE42DE52D6C
:100BC800AE2DE62DFF302C06031DEC2DFF302B0635
:100BD800031DEF2DF02D032EF72DF72D0130B4074F
:100BE8000030B53DF72D34082F3E860087010108F7
:100BF800003A0319002E012EF22D102E102E2B096B
:100C0800AD002C09AE00AD0A0319AE0A2D08053E49
:100C1800B40000302E3DB5003508B701B7073408D9
:100C2800B601B6073708803AFF0080307F02031DFF
:100C38001F2E05303602031C222E232E252E422E6F
:100C4800422E200036082F3E860087010108303EDC
:100C58008731F127853101302000B6070030B73DD4
:100C68003708803AFF0080307F02031D3D2E053093
:100C78003602031C402E412E252E422E080020004D
:100C8800A601A11F482E492E522EA009A109A00A8B
:100C98000319A10AA6010314A60D522EA31F552E4F
:100CA800562E602EA209A309A20A0319A30A01302D
:100CB800A4002408A606602EA701A8012108200484
:100CC8000319672E682E9E2EA5010314A50D762EF6
:100CD8000130A035A10D890B6D2E0130A400240828
:100CE800A507762EA11F792E7A2E6C2E7C2E7C2EAF
:100CF8000130A735A80D890B7D2E21082302031D7D
:100D0800872E20082202031C8A2E8B2E912E200863
:100D1800A2022108A33B2714912E0130A136A00C72
:100D2800890B922E0130A502031D9B2E9C2E7C2E32
:100D38009E2E9E2E2608031DA22EA82EA709A809BE
:100D4800A70A0319A80AA82E2808A101A10727089D
:100D5800A001A007AF2E08002000A601A31FB52EF2
:100D6800B62EBF2EA209A309A20A0319A30AA60137
:100D78000314A60DBF2EA11FC22EC32EC92EA00973
:100D8800A109A00A0319A10AC92E210820040319E0
:100D9800CE2ECF2EFF2EA5010314A50DDD2E01307A
:100DA800A035A10D890BD42E0130A4002408A50775
:100DB800DD2EA11FE02EE12ED32EE32EE32E2108F7
:100DC8002302031DE92E20082202031CEC2EED2E1F
:100DD800F22E2008A2022108A33BF22E0130A136F0
:100DE800A00C890BF32E0130A502031DFC2EFD2E4D
:100DF800E32EFF2EFF2E2608031D032F092FA2091D
:100E0800A309A20A0319A30A092F2308A101A1070C
:100E18002208A001A007102F0800FB08031D152FAA
:100E2800162F192F20009F01662F7B08013A031DFA
:100E38001E2F1F2F232F013020009F00662F7B08B5
:100E4800023A031D282F292F2D2F023020009F0042
:100E5800662F7B08033A031D322F332F372F0330B9
:100E680020009F00662F7B08043A031D3C2F3D2F6E
:100E7800412F043020009F00662F7B08053A031D90
:100E8800462F472F4B2F053020009F00662F7B08E9
:100E9800063A031D502F512F552F063020009F0072
:100EA800662F7B08073A031D5A2F5B2F662F0730E2
:100EB80020009F00662F662F662F662F662F662FED
:100EC800662F662F0800FB08031D6B2F6C2F6F2FF2
:100ED80020009F01BC2F7B08013A031D742F752F3A
:100EE800792F013020009F00BC2F7B08023A031D98
:100EF8007E2F7F2F832F023020009F00BC2F7B087E
:100F0800033A031D882F892F8D2F033020009F005F
:100F1800BC2F7B08043A031D922F932F972F043080
:100F280020009F00BC2F7B08053A031D9C2F9D2F96
:100F3800A12F053020009F00BC2F7B08063A031D17
:100F4800A62FA72FAB2F063020009F00BC2F7B08B1
:100F5800073A031DB02FB12FBC2F073020009F0088
:100F6800BC2FBC2FBC2FBC2FBC2FBC2FBC2FBC2F21
:100F7800080022008D013F302000A0002008210039
:100F88008D043F302000A000200823008D0430305D
:100F98002000A000200821008C0430302000A00090
:100FA800200823008C0421009D019E018D30200023
:100FB8009E009F01E830210095000B118B164130EF
:100FC80020009800111021001114E1302000990030
:100FD8009113210091178B1708002000A000F42F0F
:100FE80023009E1CF82FF92FF42FFA2F2000200839
:060FF80023009A0008002E
:1010000000344B34653479342034443465347434DA
:101010006534633474346534643420343D342034AE
:1010200000342034723465347334653474342034BD
:0210300000348A
:101F0E00640080010131890B882F003421000E13EB
:101F1E008E1723001E111E139E169D171D131D16C0
:101F2E0019309B009C012000911221009112080093
:101F3E002000A200AF2F220888310A008F3187318E
:101F4E00F1278F3101302000A1002108A207AF2F09
:101F5E00220888310A008F310038031DB72FB82FA1
:101F6E00A22FB92F080021008E150E16C0302000AA
:101F7E00A00020082400940436302000A000200881
:101F8E0024009504961738302000A0002008240065
:101F9E009704FE3093000E3092009516200091119A
:101FAE00210091150B170800FB01FC01483084003D
:101FBE000030850027308F3187278F31A030840085
:101FCE000030850050308F3187278F3120308400CC
:101FDE000130850048308F3187278F31C030840023
:101FEE000130850020308F3187278F3120008131DD
:021FFE0079293F
:020000040001F9
:04000E00BCCFFFDF85
:00000001FF
