:040000008231912A8E
:10000800803120007F08F400F70108307702031CD4
:100018000E280F2811283F283F2877080907C03ED7
:10002800860087011600010403191B281C2835289F
:1000380077080907C03E86008701403FF000413F2E
:10004800F1007008FF3EF200FF30713DF3007708C1
:100058000907C03E860087017208C03F7308C13F88
:1000680035280130F0007008F70708307702031CC4
:100078003E283F2811288B1E4228432848280B1D5C
:100088004628472848280B11911F4B284C28202A1E
:100098002100911F50285128202A200091139501F2
:1000A8001708F000F1017008F100F0011608700758
:1000B800F80071080318710AF900FA01FB01D00869
:1000C800031D6728682898285008483E860087013D
:1000D8000108F0000130F035FF3E031D6F28703530
:1000E800A03E860087017808C03F7908C13F7A089A
:1000F800C23F7B08C33F0130F0005008483E8600ED
:100108008701700881075008483E8600870101086A
:10011800083A031D9028912898285008483E8600E0
:1001280087018101982898285008013A031D9D28C5
:100138009E28CF285008483E860087010108F00015
:100148000130F035FF3E031DA5287035203E86009E
:10015800013087007808C03F7908C13F7A08C23F5C
:100168007B08C33F0130F0005008483E86008701F5
:10017800700881075008483E860087010108083A40
:10018800031DC728C828CF285008483E8600870185
:100198008101CF28CF285008023A031DD428D5283A
:1001A80006295008483E860087010108F000013002
:1001B800F035FF3E031DDC287035403E86000130D7
:1001C80087007808C03F7908C13F7A08C23F7B089A
:1001D800C33F0130F0005008483E86008701700890
:1001E80081075008483E860087010108083A031D28
:1001F800FE28FF2806295008483E8600870181010D
:10020800062906295008033A031D0B290C293D2904
:100218005008483E860087010108F0000130F0359B
:10022800FF3E031D13297035A03E8600013087006C
:100238007808C03F7908C13F7A08C23F7B08C33FAE
:100248000130F0005008483E860087017008810799
:100258005008483E860087010108083A031D3529E1
:1002680036293D295008483E8600870181013D29ED
:100278003D295008043A031D42294329742950088E
:10028800483E860087010108F0000130F035FF3E46
:10029800031D4A297035C03E860001308700780862
:1002A800C03F7908C13F7A08C23F7B08C33F01308D
:1002B800F0005008483E8600870170088107500802
:1002C800483E860087010108083A031D6C296D29FC
:1002D80074295008483E86008701810174297429D1
:1002E8005008053A031D79297A29AB295008483E58
:1002F800860087010108F0000130F035FF3E031D3C
:1003080081297035203E8600023087007808C03F7A
:100318007908C13F7A08C23F7B08C33F0130F0002B
:100328005008483E86008701700881075008483EFB
:10033800860087010108083A031DA329A429AB29CF
:100348005008483E860087018101AB29AB29500837
:10035800063A031DB029B129E2295008483E860013
:1003680087010108F0000130F035FF3E031DB82970
:100378007035403E8600023087007808C03F790813
:10038800C13F7A08C23F7B08C33F0130F0005008E4
:10039800483E86008701700881075008483E86005D
:1003A80087010108083A031DDA29DB29E2295008E8
:1003B800483E860087018101E229E2295008073A70
:1003C800031DE729E829192A5008483E86008701B5
:1003D8000108F0000130F035FF3E031DEF297035AC
:1003E800A03E8600023087007808C03F7908C13FE8
:1003F8007A08C23F7B08C33F0130F0005008483EEE
:1004080086008701700881075008483E86008701EA
:100418000108083A031D112A122A192A5008483ED1
:10042800860087018101192A192A96019701181453
:10043800FE3095009915202A2000911D242A252A8E
:100448008D2A2100911D292A2A2A8D2A20009111FE
:10045800240014082539F0007008F5007508013AE1
:10046800031D372A382A3B2AF60115168D2A7508E6
:10047800213A031D402A412A582A1108F00076081B
:10048800D03E860087017008810015160130F00003
:100498007008F6077608083A031D532A542A8D2A4D
:1004A8000130F6028D2A8D2A7508053A031D5D2A4A
:1004B8005E2A692A22008E1621005808240091001D
:1004C8001516F6010314F60D8D2A7508243A031D36
:1004D8006E2A6F2A872A161B722A732A872A760899
:1004E800D83E860087010108910015160130F000FA
:1004F8007008F6077608083A031D832A842A8D2A8D
:10050800F6018D2A8D2A15168D2A8D2A8D2A8D2A77
:100518008D2A74082000FF00090088018731942F74
:100528002000ED01EE01EA017830210099009801E0
:100538002000EB01EC0123008C018D0121008C01CE
:100548008D018E018E1222008E168731CB278231C3
:100558008F31EE2782312000ED016D08083A031D26
:10056800B62AB72AB92AED01B92A6D08E90069083F
:10057800D00086313626823120004008013A031D1A
:10058800C62AC72AFF2A0030A3000030A200003084
:10059800A1000030A000EE0108306E02031CD52A2D
:1005A800D62AD82AF62AF62A6E08E9000130E93553
:1005B800FF3E031DDB2A6935A03E86008701403FC8
:1005C800A007413FA13D423FA23D433FA33D01302B
:1005D800E9006908EE0708306E02031CF42AF52AC0
:1005E800D82AF62A0330A336A20CA10CA00C890B3A
:1005F800F72AC001FF2A4108013A031D042B052BE5
:10060800362BEE0108306E02031C0B2B0C2B0E2B25
:100618002D2B2D2B6E08E9000130E935FF3E031D17
:10062800112B6935203E860001308700403FA40722
:10063800413FA53D423FA63D433FA73D0130E9006C
:100648006908EE0708306E02031C2B2B2C2B0E2B8F
:100658002D2B0330A736A60CA50CA40C890B2E2B2A
:10066800C101362B4208013A031D3B2B3C2B6D2B55
:10067800EE0108306E02031C422B432B452B642BE2
:10068800642B6E08E9000130E935FF3E031D482B55
:100698006935403E860001308700403FA807413F4A
:1006A800A93D423FAA3D433FAB3D0130E9006908FF
:1006B800EE0708306E02031C622B632B452B642B5C
:1006C8000330AB36AA0CA90CA80C890B652BC20108
:1006D8006D2B4308013A031D722B732BA42BEE01DB
:1006E80008306E02031C792B7A2B7C2B9B2B9B2BBF
:1006F8006E08E9000130E935FF3E031D7F2B69359F
:10070800A03E860001308700403FAC07413FAD3D29
:10071800423FAE3D433FAF3D0130E9006908EE0777
:1007280008306E02031C992B9A2B7C2B9B2B0330D1
:10073800AF36AE0CAD0CAC0C890B9C2BC301A42BB3
:100748004408013A031DA92BAA2BDB2BEE01083024
:100758006E02031CB02BB12BB32BD22BD22B6E08FD
:10076800E9000130E935FF3E031DB62B6935C03E6F
:10077800860001308700403FB007413FB13D423F0E
:10078800B23D433FB33D0130E9006908EE07083048
:100798006E02031CD02BD12BB32BD22B0330B336D4
:1007A800B20CB10CB00C890BD32BC401DB2B450860
:1007B800013A031DE02BE12B122CEE0108306E02EA
:1007C800031CE72BE82BEA2B092C092C6E08E900FF
:1007D8000130E935FF3E031DED2B6935203E8600CB
:1007E80002308700403FB407413FB53D423FB63D28
:1007F800433FB73D0130E9006908EE0708306E0253
:10080800031C072C082CEA2B092C0330B736B60C2E
:10081800B50CB40C890B0A2CC501122C4608013AF8
:10082800031D172C182C492CEE0108306E02031CEE
:100838001E2C1F2C212C402C402C6E08E900013066
:10084800E935FF3E031D242C6935403E8600023001
:100858008700403FB807413FB93D423FBA3D433F5B
:10086800BB3D0130E9006908EE0708306E02031C41
:100878003E2C3F2C212C402C0330BB36BA0CB90C33
:10088800B80C890B412CC601492C4708013A031DB5
:100898004E2C4F2C802CEE0108306E02031C552C78
:1008A800562C582C772C772C6E08E9000130E93546
:1008B800FF3E031D5B2C6935A03E86000230870091
:1008C800403FBC07413FBD3D423FBE3D433FBF3D6A
:1008D8000130E9006908EE0708306E02031C752C28
:1008E800762C582C772C0330BF36BE0CBD0CBC0CB4
:1008F800890B782CC701802C30308F31E02782316A
:100908003A308F31E027823120002108DB01DB07F4
:100918002008DA01DA070530DC000030DD00853117
:100928005D25823120308F31E027823131308F319F
:10093800E02782313A308F31E027823120002508C4
:10094800DB01DB072408DA01DA070530DC000030B8
:10095800DD0085315D25823120308F31E0278231FD
:1009680032308F31E02782313A308F31E0278231BF
:1009780020002908DB01DB072808DA01DA0705303F
:10098800DC000030DD0085315D25823120308F317B
:10099800E027823133308F31E02782313A308F318E
:1009A800E027823120002D08DB01DB072C08DA0163
:1009B800DA070530DC000030DD0085315D25823145
:1009C80020308F31E027823134308F31E027823177
:1009D8003A308F31E027823120003108DB01DB0714
:1009E8003008DA01DA070530DC000030DD00853137
:1009F8005D25823120308F31E027823135308F31CB
:100A0800E02782313A308F31E027823120003508E3
:100A1800DB01DB073408DA01DA070530DC000030D7
:100A2800DD0085315D25823120308F31E02782312C
:100A380036308F31E02782313A308F31E0278231EA
:100A480020003908DB01DB073808DA01DA0705304E
:100A5800DC000030DD0085315D25823120308F31AA
:100A6800E027823137308F31E02782313A308F31B9
:100A7800E027823120003D08DB01DB073C08DA0172
:100A8800DA070530DC000030DD0085315D25823174
:100A98000A308F31E02782310D308F31E0278231E3
:100AA80001302000E9006908ED07B12AB12A823136
:100AB800912AE030860000308700603084000030E2
:100AC80085000530FF0016001A00FF0B672D043063
:100AD8002000E7000030E800E501E601DB1F752D86
:100AE800762D812D2D308F31E02785312000DA09D0
:100AF800DB09DA0A0319DB0A862D20308F31E0275B
:100B08008531862D20005B085A04031D8C2D8D2D00
:100B1800D12D5D08803AFF0080307F02031D962D9D
:100B280001305C020318992D9A2DD12D30308F3168
:100B3800E0278531352E352ED12D0A302000D10001
:100B48000030D2005B08D401D4075A08D301D30778
:100B580087313327853120005108DE006708603E61
:100B6800860087015E0881000A30D1000030D2007B
:100B78005B08D401D4075A08D301D3078631C626A7
:100B8800853120005208DB01DB075108DA01DA075A
:100B9800FF30E707FF30E83DD12D20005B085A04FD
:100BA800031DD72DD82DA12DD92DFF305D06031D8E
:100BB800DF2DFF305C06031DE22DE32DF62DEA2D17
:100BC800EA2D0130E5070030E63DEA2D6508603E74
:100BD800860087010108003A0319F32DF42DE52D4D
:100BE800032E032E5C09DE005D09DF00DE0A03190F
:100BF800DF0A5E08053EE50000305F3DE600660856
:100C0800E801E8076508E701E7076808803AFF0098
:100C180080307F02031D122E05306702031C152E3B
:100C2800162E182E352E352E20006708603E8600B9
:100C380087010108303E8F31E027853101302000DF
:100C4800E7070030E83D6808803AFF0080307F02FF
:100C5800031D302E05306702031C332E342E182E48
:100C6800352E08002000D301D401D008031D3D2EE5
:100C78003E2E402E9F01862E5008013A031D452E18
:100C8800462E492E01309F00862E5008023A031D39
:100C98004E2E4F2E522E02309F00862E5008033AB9
:100CA800031D572E582E5B2E03309F00862E5008AA
:100CB800043A031D602E612E642E04309F00862E98
:100CC8005008053A031D692E6A2E6D2E05309F00C7
:100CD800862E5008063A031D722E732E762E063085
:100CE8009F00862E5008073A031D7B2E7C2E862EE9
:100CF80007309F00862E862E862E862E862E862EDE
:100D0800862E862ED301D4015408803AFF00803005
:100D18007F02031D912E08305302031C942E952E3A
:100D2800972EC52EC52E20005008D100D201540898
:100D38005206031DA12E53085106031DA42EA52EED
:100D4800AB2E5308403E860087018101B32E53081D
:100D5800403E8600870181010314810DB32E0130C6
:100D6800D3070030D43D5408803AFF0080307F021A
:100D7800031DC02E08305302031CC32EC42E972E09
:100D8800C52E08002000D701D21FCB2ECC2ED52E81
:100D9800D109D209D10A0319D20AD7010314D70DF0
:100DA800D52ED41FD82ED92EE32ED309D409D30A91
:100DB8000319D40A0130D5005508D706E32ED80107
:100DC800D901520851040319EA2EEB2E212FD6011E
:100DD8000314D60DF92E0130D135D20D890BF02E22
:100DE8000130D5005508D607F92ED21FFC2EFD2E4E
:100DF800EF2EFF2EFF2E0130D835D90D890B002F8D
:100E080052085402031D0A2F51085302031C0D2FC8
:100E18000E2F142F5108D3025208D43B5814142F04
:100E28000130D236D10C890B152F0130D602031DA3
:100E38001E2F1F2FFF2E212F212F5708031D252F6F
:100E48002B2FD809D909D80A0319D90A2B2F5908E1
:100E5800D201D2075808D101D107322F080020004B
:100E6800D701D41F382F392F422FD309D409D30AD9
:100E78000319D40AD7010314D70D422FD21F452FC7
:100E8800462F4C2FD109D209D10A0319D20A4C2F67
:100E9800520851040319512F522F822FD6010314DF
:100EA800D60D602F0130D135D20D890B572F013067
:100EB800D5005508D607602FD21F632F642F562FF1
:100EC800662F662F52085402031D6C2F51085302D7
:100ED800031C6F2F702F752F5108D3025208D43B73
:100EE800752F0130D236D10C890B762F0130D602FE
:100EF800031D7F2F802F662F822F822F5708031DF7
:100F0800862F8C2FD309D409D30A0319D40A8C2F1E
:100F18005408D201D2075308D101D107932F0800F2
:100F2800F801F901FA01FB01203084000030850046
:100F380031308F31DA278731A030840000308500C6
:100F480045308F31DA278731203084000130850021
:100F580040308F31DA278731A03084000130850096
:100F680040308F31DA278731203084000230850005
:100F780040308F31DA278731A03084000230850075
:100F880040308F31DA27873120008231942A2200BD
:100F98008D013F302000D100510821008D043F30E1
:100FA8002000D100510823008D0430302000D100EA
:100FB800510821008C0430302000D1005108230052
:100FC8008C0421009D019E018D3020009E009F0110
:100FD800E830210095000B118B1641302000980055
:100FE800111021001114E130200099009113210003
:060FF80091178B170800A1
:101FB400640080010131890BDB2F00342000D10043
:101FC400E32F23009E1CE72FE82FE32FE92F2000A7
:101FD400510823009A00080021000E138E172300D5
:101FE4001E111E139E169D171D131D1619309B00DE
:0C1FF4009C0120009112210091120800B5
:020000040001F9
:04000E00A4DFFFDF8D
:00000001FF
