:0400000080317828AB
:10000800803120007F08F100911D0B280C287428EE
:100018002100911D10281128742820009111240016
:1000280014082539F0007008F2007208013A031D1F
:100038001E281F282228F301151674287208213A51
:10004800031D272828283F281108F0007308503E70
:10005800860087017008810015160130F0007008CD
:10006800F3077308083A031D3A283B28742801301F
:10007800F302742874287208053A031D4428452899
:10008800502822008D1720004708240091001516DB
:10009800F3010314F30D74287208243A031D55283C
:1000A80056286E28161B59285A286E287308473E6A
:1000B800860087010108910015160130F0007008CC
:1000C800F3077308093A031D6A286B287428F3019B
:1000D80074287428151674287428742874287428A9
:1000E80071082000FF00090088018431852C003048
:1000F8002000C2000030C1000030C0000030BF0046
:100108000030C6000030C5000030C4000030C30015
:10011800BE0178302100990098018C018D018E0173
:1001280084319C2480310030F7000030F600003024
:10013800F5000A30F4008231B92280318431662416
:1001480080310030F7000030F6000030F5000A304A
:10015800F4008231B92280318431BC2480310030EE
:10016800F7000030F6000030F5000A30F400823164
:10017800B92280318331E42380310030F700003028
:10018800F6000030F5006430F4008231B922803185
:1001980022008D1214308431AF24803122008D1654
:1001A80000302000C6000030C5000030C400003018
:1001B800C300BE01DF280E18E228E328DF2822004A
:1001C8008D1200302000C2000030C1000030C00095
:1001D8000030BF00FF308431AF2480312000B900E7
:1001E800BA01BB01BC013C08C2003B08C1003A0887
:1001F800C0003908BF003F08B9004008BA004108EC
:10020800BB004208BC000830B935BA0DBB0DBC0DA7
:10021800890B08293C08C2003B08C1003A08C00005
:100228003908BF00FF308431AF2480312000B90085
:10023800BA01BB01BC013908BF043A08C0043B0835
:10024800C1043C08C2043F08B9004008BA0041088C
:10025800BB004208BC000830B935BA0DBB0DBC0D57
:10026800890B30293C08C2003B08C1003A08C0008D
:100278003908BF00FF308431AF2480312000B90035
:10028800BA01BB01BC013908BF043A08C0043B08E5
:10029800C1043C08C20422008D1620003F08B900A2
:1002A8004008BA004108BB004208BC000830BC3610
:1002B800BB0CBA0CB90C890B5B293908C3073A087F
:1002C800C43D3B08C53D3C08C63D0130B90039086E
:1002D800BE073E08103A031D72297329DF28033030
:1002E800C636C50CC40CC30C890B74294608AB0070
:1002F8004508AA004408A9004308A80082310F2233
:1003080080310A308431C72480310D308431C724CC
:10031800803120004308B9003908C7004308B900F4
:100328004408BA004508BB004608BC000830BC3683
:10033800BB0CBA0CB90C890B9B293908BD003D08C8
:10034800C8004308B9004408BA004508BB0046087D
:10035800BC001030BC36BB0CBA0CB90C890BAE29EA
:100368003908BD003D08C9004308B9003908CA006A
:100378004308B9004408BA004508BB004608BC0059
:100388000830BC36BB0CBA0CB90C890BC529390826
:10039800BD003D08CB004308B9003908CC0043082C
:1003A800B9004408BA004508BB004608BC0008303C
:1003B800BC36BB0CBA0CB90C890BDC293908BD005A
:1003C8003D08CD004308B9003908CE004308B900FC
:1003D8004408BA004508BB004608BC000830BC36D3
:1003E800BB0CBA0CB90C890BF3293908BD003D08C0
:1003F800CF0022008D1300302000C6000030C50059
:100408000030C4000030C300BE01DF28DF28DF2829
:10041800DF288031782858308600003087002D305A
:100428008400003085000A30FF0016001A00FF0B18
:10043800192A09302000B7000030B800342A2D30BE
:100448008431C72482312000A809A909AA09AB0967
:10045800A80A0319A90A0319AA0A0319AB0A812AC7
:100468002B308431C7248231812A812A0030200030
:10047800A3000030A2000030A1000A30A0002B0821
:10048800A7002A08A6002908A5002808A400833187
:100498009123823120002008303EAC0037082D3EE1
:1004A800860087012C0881000030A3000030A200DC
:1004B8000030A1000A30A0002B08A7002A08A600D7
:1004C8002908A5002808A40083312E2382312000A2
:1004D8002308AB002208AA002108A9002008A800C8
:1004E800FF30B707FF30B83D38083704031D7D2AB1
:1004F8007E2A812A8B2A8B2A812A20002B082A040B
:1005080029042804031D892A8A2A3A2A8B2AB70132
:10051800B8013808803AFF0080307F02031D962A10
:100528000A303702031C992A9A2A9C2AB82AB82A20
:10053800200037082D3E8600870101088431C72432
:10054800823101302000B7070030B83D3808803AC2
:10055800FF0080307F02031DB32A0A303702031CD4
:10056800B62AB72A9C2AB82A080000302000A8001A
:100578000030A7000030A6000030A5000A2B043088
:10058800A0002008A400002B0030A8000030A7001D
:100598000030A6000030A50000302802031DDE2A26
:1005A80000302702031DDE2A00302602031DDE2A42
:1005B80064302502031CE12AE22AE42A002B002BDE
:1005C8000130A5070030A63D0030A73D0030A83D0A
:1005D80000302802031DFA2A00302702031DFA2AD8
:1005E80000302602031DFA2A64302502031CFD2A66
:1005F800FE2AE42A002B002B0130A4022408FF3A2B
:10060800031D072B082BC82A0A2B0A2B0130A00030
:100618000030A1000030A2000030A3002008F4023E
:100628002108F53B2208F63B2308F73BFF30770605
:10063800031D282BFF307606031D282BFF30750677
:10064800031D282BFF307406031D2B2B2C2BC32ACC
:100658002D2B08000030F8000030F7000030F600BD
:100668000030F50020002308220421042004031987
:100678003E2B3F2B872BF9010314F90D4F2B01302B
:10068800A035A10DA20DA30D890B442B0130F40058
:100698007408F9074F2BA31F522B532B432B552BB1
:1006A800552B0130F535F60DF70DF80D890B562B46
:1006B80023082702031D6A2B22082602031D6A2B22
:1006C80021082502031D6A2B20082402031C6D2B18
:1006D8006E2B782B2008A4022108A53B2208A63BF4
:1006E8002308A73B7514782B0130A336A20CA10C64
:1006F800A00C890B792B0130F902031D842B852B63
:10070800552B872B872B7808A3007708A20076083B
:10071800A1007508A000902B0800200023082204DF
:10072800210420040319992B9A2BDA2BF5010314C1
:10073800F50DAA2B0130A035A10DA20DA30D890B33
:100748009F2B0130F4007408F507AA2BA31FAD2BCB
:10075800AE2B9E2BB02BB02B23082702031DBE2BDC
:1007680022082602031DBE2B21082502031DBE2BCD
:1007780020082402031CC12BC22BCB2B2008A40267
:100788002108A53B2208A63B2308A73BCB2B013019
:10079800A336A20CA10CA00C890BCC2B0130F502BE
:1007A800031DD72BD82BB02BDA2BDA2B2708A30065
:1007B8002608A2002508A1002408A000E32B0800B1
:1007C80021008E148D138C1222008C160030F70035
:1007D8000030F6000030F5000A30F4008231B9220A
:1007E800833122008C120030F7000030F600003010
:1007F800F5000A30F4008231B922833122008C16C8
:100808008D1200308431AF24833140308431AF24DD
:10081800833100308431AF24833101308431AF24F7
:10082800833142308431AF24833100308431AF24A6
:10083800833150308431AF24833143308431AF2445
:10084800833100308431AF24833105308431AF24C3
:10085800833122008D160800F500F701F801803079
:10086800F4007408F600F80108307802031C3D2CE7
:100878003E2C402C632C632C750876050319452CF7
:10088800462C492C22000E174B2C22000E138E15D5
:100898000310F70D20008E1F522C532C542C771464
:1008A80022008E110310F60C0130F4007408F807CA
:1008B80008307802031C612C622C402C632C7708CA
:1008C800652C080023008D0121000D160D17C0307E
:1008D800F4007408240094043630F4007408950475
:1008E80096173830F40074089704FE3093002C30C3
:1008F8009200951620009111210091150B178B1766
:100908000800473084000030850011308431DC2431
:100918008431D2308400843085005830860000301D
:1009280087000A308431E2248431200080317B281A
:100938008430F400740822009D0421008E160E12E3
:1009480023001E159F151E121E139E169D17453057
:100958009B009C0108002000A0002008843130245E
:100968008431F90079082000A1002108BB2C080077
:1009780023008E0121008E118E170E138D12220076
:100988008D168E110800F400C92C23009E1CCD2C56
:10099800CE2CC92CCF2C74089A000800303430347F
:1009A800303430343034303430343034303430341F
:1009B800640080010131890BDD2C0034FE00120037
:0809C8001E00FE0BE32C0034BD
:020000040001F9
:04000E00A4DFFFDE8E
:00000001FF
