:040000000CEF00F011
:10000800FACF48F2FBCF49F2E9CF4AF2A3ED1CF050
:1000180000EE57F0680EF66E100EF76E11EE92F0C5
:1000280025EC00F000EE00F010EE57F01EEC00F0AA
:10003800FDEF08F0EE6AE550E150FCE1E250FAE12C
:1000480012000900F5CFEEFFE550E150FAE1E25069
:04005800F8E11200B9
:101000000050494420434F4E54524F4C4C455220BF
:101010002000745F636F75706C6520747970652053
:1010200020200020202020204A20202020202020B6
:101030002020200020202020204B202020202020A5
:1010400020202020002020205345542054454D507E
:101050002020202020002050494420542D53455466
:1010600020542D4355520000000000CB013F00A04A
:1010700041BCC43F0020427125400070429A694043
:1010800000A0423B974000C8420CBA4000F0421713
:10109000DD40000C43290041002043D711410034BA
:1010A00043962341004843583541005C431F474164
:1010B000007043E15841008243A46A41008C435EC2
:1010C0007C410096430C874100A043E38F4100AA76
:1010D00043B8984100B4438DA14100BE4360AA418A
:1010E00000C84333B34100D24308BC4100DC43E1B4
:1010F000C44100E643C3CD4100F043ACD64100FA01
:101100004325DB41000244A4E8410007442DED41A2
:10111000000C44E1FA4100114483FF41000000004B
:10112000000000000000000000A0414A4C3F0020E9
:101130004235CE3F007042E71B4000A0423168407C
:1011400000C84212834000F0427FAA40000C438551
:10115000B7400020431DDE40003443E1EA40004830
:1011600043A00841005C430A0F41007043732241D1
:10117000008243FA2841008C431D364100964358B3
:10118000434100A043A4504100AA43FC5D4100B488
:1011900043686B4100BE43DD784100C8432D834165
:1011A00000D243F2894100DC43BA904100E6438714
:1011B000974100F043569E4100FA4327A5410002A3
:1011C00044FAAB41000744CDB241000C44A0B94100
:1011D00000114471C0410000000000000000000048
:1011E00000000201000000000301010000000402F1
:1011F000440200000000000000000201086F000E21
:101200009B6E02010851730ED312C10E926E070E2F
:10121000946E000E966E939E9596959495929580F9
:10122000939093929598959A959C959E000E1E6E1C
:10123000000E1F6E000E006EC80E016E420E026E92
:101240000201086F000E496E02010851000E536E34
:10125000000E546E000E036E000E046E000E056E3E
:10126000000E446E000E456E000E066E000E076EF8
:10127000000E086E000E466E000E476E000E266EC3
:10128000000E276E000E556E000E566E000E196E83
:10129000000E1A6E100E195C000E1A58D8A053EFEB
:1012A00009F055EF09F057EF09F06CEF09F0090E5E
:1012B0001924E96EEA6A000EEA22200EEF6E194A3E
:1012C0001A2A100E195C000E1A58D8A06AEF09F0FD
:1012D0006CEF09F057EF09F094EC15F0CAEC21F02F
:1012E000FEEC21F0E5EC21F0010E196E000E1A6EF5
:1012F00035EF0BF0010E1C6E000E1D6E0201086F23
:10130000800E02010201146F02010851010E020158
:101310000201126F100E0201136F93EC1EF0020E09
:10132000196E000E1A6E320E020102011B6F000EC2
:1013300002011C6F26EC20F052EF0BF0000E0201B0
:101340000201066F000E0201076F02010201075140
:10135000800A800F100ED8B4065DD8A0B2EF09F055
:10136000B4EF09F0B6EF09F0D3EF09F0090E02016E
:1013700002010625E96EEA6A000EEA22200EEF6EEF
:1013800002010201064B072B020102010751800AEC
:10139000800F100ED8B4065DD8A0D1EF09F0D3EFBE
:1013A00009F0B6EF09F00201086F800E0201020198
:1013B000146F02010851120E02010201126F100E89
:1013C0000201136F93EC1EF00201086F000E496ECC
:1013D000020108511F501E10D8A4F1EF09F0F3EFDD
:1013E00009F006EF0AF00201086FC00E02010201C7
:1013F000146F02010851230E02010201126F100E38
:101400000201136F93EC1EF020EF0AF01E041F1070
:10141000D8A40DEF0AF00FEF0AF020EF0AF0020156
:10142000086FC00E02010201146F02010851340E50
:1014300002010201126F100E0201136F93EC1EF0F5
:101440005CEC16F00AC204F20BC205F21EC00CF2EC
:101450001FC00DF204C20AF205C20BF22FEC11F00C
:101460000AC21EF00BC21FF052EF0BF08EEC21F0FF
:101470000201086F800E02010201146F020108517F
:10148000450E02010201126F100E0201136F93EC60
:101490001EF00201086F040E426E0201085100C0E6
:1014A00013F201C014F202C015F2E8EC17F013C2F7
:1014B0000AF214C20BF20201086F000E02010201CF
:1014C0000C6F0201085102EC1FF05CEC16F00AC22E
:1014D00004F20BC205F200C013F201C014F202C004
:1014E00015F2E8EC17F013C200F214C201F215C2B3
:1014F00002F216C203F200C20CF201C20DF204C2E3
:101500000AF205C20BF22FEC11F00AC20AF20BC26A
:101510000BF224EC1EF00AC200F00BC201F00CC268
:1015200002F052EF0BF00201086F800E020102017F
:10153000146F02010851560E02010201126F100EC3
:101540000201136F93EC1EF024EC17F00AC204F2B0
:101550000BC205F21950020A1A10D8A4B2EF0AF011
:10156000B4EF0AF0BCEF0AF00201086F000E496EFA
:1015700002010851C2EF0AF00201086F010E496E24
:101580000201085146044710D8A4C9EF0AF0CBEF76
:101590000AF033EF0BF0F6EC20F00AC20AF20BC2AD
:1015A0000BF224EC1EF00AC206F00BC207F00CC2CC
:1015B00008F0000E4A6E000E4B6E000E4C6E0201DB
:1015C000086F040E426E0201085100C013F201C000
:1015D00014F202C015F2E8EC17F013C20AF214C2BA
:1015E0000BF20201086F050E020102010C6F0201ED
:1015F000085102EC1FF030EC1DF00AC22EF00BC2B5
:101600002FF00CC230F02EC013F22FC014F230C0F5
:1016100015F2E8EC17F013C20AF214C20BF2020141
:10162000086F0A0E020102010C6F0201085102EC60
:101630001FF0DEEC12F0000E066E000E076E000EBC
:10164000086E0201086F000E020102010C6F020118
:10165000085126C00AF227C00BF202EC1FF0000E60
:10166000466E000E476E52EF0BF019C008F21AC01A
:1016700009F202014CEF0BF002010851010A01E1ED
:1016800039D6030A01E15AD6010A01E1EFD6070A69
:1016900001E149D752EF0BF002010951000AECE0D9
:1016A00052EF0BF078EF09F00CEF00F0000E0201A2
:1016B0000201186F000E0201196F02010201195197
:1016C000800A800F1F0ED8B4185DD8A06AEF0BF007
:1016D0006CEF0BF06EEF0BF08CEF0DF0060E0201CD
:1016E0000201306F000E0201316F18C22EF219C2D2
:1016F0002FF2BCEC20F0020102012E510201020186
:10170000132502012C6F020102012F510201020177
:10171000142102012D6F030E02012C25E96E000E2B
:1017200002012D21EA6E020102011051EE1807E1BB
:1017300002011151EE1803E102011251EE18D8A472
:10174000A4EF0BF0A6EF0BF0D2EF0BF0060E0201A8
:101750000201306F000E0201316F18C22EF219C261
:101760002FF2BCEC20F0020102012E510201020115
:101770001325E96E020102012F5102010201142119
:10178000EA6E0201EECF29F20201EECF2AF2020147
:10179000EDCF2BF229C210F22AC211F22BC212F2A3
:1017A0008CEF0DF0060E02010201306F000E0201F7
:1017B000316F18C22EF219C22FF2BCEC20F00201D8
:1017C00002012E5102010201132502012C6F0201B8
:1017D00002012F5102010201142102012D6F030E9B
:1017E00002012C25E96E000E02012D21EA6E020194
:1017F000EECF2EF20201EECF2FF20201EDCF30F24A
:1018000010C231F211C232F212C233F2ADEC1DF04D
:10181000D8B00DEF0CF00FEF0CF079EF0DF0060ED5
:1018200002010201306F000E0201316F010E020150
:1018300002011825020102012E6F000E02010201B1
:10184000192102012F6FBCEC20F0020102012E5180
:1018500002010201132502012C6F020102012F5126
:1018600002010201142102012D6F030E02012C2539
:10187000E96E000E02012D21EA6E0201EECF31F277
:101880000201EECF32F20201EDCF33F210C22EF29E
:1018900011C22FF212C230F2ADEC1DF0D8B053EFEE
:1018A0000CF055EF0CF079EF0DF0060E020102017D
:1018B000306F000E0201316F18C22EF219C22FF2E2
:1018C000BCEC20F0020102012E510201020113259D
:1018D00002012C6F020102012F51020102011421A9
:1018E00002012D6F030E02012C25E96E000E02018C
:1018F0002D21EA6E0201EECF26F20201EECF27F291
:101900000201EDCF28F2060E02010201306F000E37
:101910000201316F010E02010201182502010201CC
:101920002E6F000E02010201192102012F6FBCEC83
:1019300020F0020102012E510201020113250201D1
:101940002C6F020102012F51020102011421020138
:101950002D6F030E02012C25E96E000E02012D21D0
:10196000EA6E0201EECF20F20201EECF21F2020177
:10197000EDCF22F2060E02010201306F000E0201CD
:10198000316F18C22EF219C22FF2BCEC20F0020106
:1019900002012E51020102011325E96E020102012A
:1019A0002F51020102011421EA6E0201EECF23F24F
:1019B0000201EECF24F20201EDCF25F2060E020164
:1019C0000201306F000E0201316F010E02010201AF
:1019D0001825020102012E6F000E020102011921D9
:1019E00002012F6FBCEC20F0020102012E51020116
:1019F00002011325E96E020102012F5102010201C9
:101A00001421EA6E0201EECF1DF20201EECF1EF2AA
:101A10000201EDCF1FF223C231F224C232F225C2FD
:101A200033F21DC22EF21EC22FF21FC230F26BEC37
:101A300021F02EC215F22FC216F230C217F226C2C2
:101A400031F227C232F228C233F220C22EF221C272
:101A50002FF222C230F26BEC21F02EC231F22FC2F3
:101A600032F230C233F215C22EF216C22FF217C272
:101A700030F2BDEC14F02EC21AF22FC21BF230C2AB
:101A80001CF226C231F227C232F228C233F210C24F
:101A90002EF211C22FF212C230F26BEC21F02EC2E4
:101AA0002EF22FC22FF230C230F21AC231F21BC214
:101AB00032F21CC233F2CEEC13F02EC234F22FC23B
:101AC00035F230C236F223C237F224C238F225C2D0
:101AD00039F25EEC0FF034C229F235C22AF236C276
:101AE0002BF229C210F22AC211F22BC212F28CEF91
:101AF0000DF002010201184B192B020102011951CC
:101B0000800A800F1F0ED8B4185DD8A08AEF0DF0A0
:101B10008CEF0DF06EEF0BF012008FEF0DF0020165
:101B2000650E02010201696F0201020E02016A6F75
:101B300002015B0E02010201676F0201020E020147
:101B4000686FC9EC1FF002010201636F020102011C
:101B50006567ADEF0DF0AFEF0DF0B7EF0DF05EC2C2
:101B60005BF25FC25CF260C25DF25DEF0FF00201FA
:101B7000640E02010201696F0201020E02016A6F26
:101B800002015E0E02010201676F0201020E0201F4
:101B9000686FC9EC1FF002010201616F02010201CE
:101BA0006451D8B4D6EF0DF0D8EF0DF032EF0FF04E
:101BB0000201666F060E02010201626F02016651A8
:101BC000020102016451020102016561EAEF0DF0B8
:101BD000ECEF0DF048EF0EF0020102016551020139
:101BE0000201645D0201666F190E0201665DD8A0F4
:101BF000FCEF0DF0FEEF0DF010EF0EF0000E020105
:101C000002015B6F000E020102015C6F000E020117
:101C100002015D6F64C265F261C263F246EF0EF0CD
:101C20000201D89002015E3702015F37020160377E
:101C30000201020164070201020164510201020172
:101C40006519D8B426EF0EF028EF0EF02DEF0EF048
:101C500002010201622F10EF0EF03AEF0EF00201C6
:101C6000D89002015D3302015C3302015B33020153
:101C70000201652B02010201645102010201656348
:101C800044EF0EF046EF0EF02FEF0EF0ABEF0EF03C
:101C9000020102016551020102016419D8B453EF37
:101CA0000EF055EF0EF0ABEF0EF0020102016451A1
:101CB00002010201655D0201666F190E0201665D97
:101CC000D8A065EF0EF067EF0EF075EF0EF0000E86
:101CD000020102015E6F000E020102015F6F000E41
:101CE00002010201606FABEF0EF00201D890020119
:101CF0005B3702015C3702015D37020102016507B3
:101D0000020102016451020102016519D8B48BEF8E
:101D10000EF08DEF0EF092EF0EF002010201622F35
:101D200075EF0EF09FEF0EF00201D89002016033C4
:101D300002015F3302015E3302010201642B0201E2
:101D400002016451020102016563A9EF0EF0ABEFDD
:101D50000EF094EF0EF0020102016351D8B4B3EF1C
:101D60000EF0B5EF0EF0CDEF0EF0FF0E0201020106
:101D70005B1BFF0E020102015C1BFF0E0201020150
:101D80005D1B010E020102015B27000E0201020130
:101D90005C23000E020102015D2302010201615178
:101DA000D8B4D5EF0EF0D7EF0EF0EFEF0EF0FF0E38
:101DB000020102015E1BFF0E020102015F1BFF0E0A
:101DC00002010201601B010E020102015E27000EEA
:101DD000020102015F23000E0201020160230201E1
:101DE000666F000E02010201636F0201665102017B
:101DF00002015E51020102015B27020102015F51F3
:101E0000020102015C230201020160510201020190
:101E10005D23020102015DAF10EF0FF012EF0FF032
:101E200032EF0FF0FF0E020102015B1BFF0E0201F9
:101E300002015C1BFF0E020102015D1B010E02018B
:101E400002015B27000E020102015C23000E020169
:101E500002015D230201666F010E02010201636F40
:101E60000201665165C269F202015B0E02010201C4
:101E7000676F0201020E0201686F54EC19F0020153
:101E800002016351D8B447EF0FF049EF0FF055EF5F
:101E90000FF0000E020102015B1B000E02010201A5
:101EA0005C1B800E020102015D1B5BC25BF25CC227
:101EB0005CF25DC25DF25DEF0FF0120060EF0FF0BB
:101EC00002013E0E02010201426F0201020E0201F6
:101ED000436F0201340E02010201406F0201020E43
:101EE0000201416F6CEC1FF0020102013C6F020124
:101EF00002013E677EEF0FF080EF0FF088EF0FF0EA
:101F000037C234F238C235F239C236F22EEF11F050
:101F100002013D0E02010201426F0201020E0201A6
:101F2000436F0201370E02010201406F0201020EEF
:101F30000201416F6CEC1FF0020102013A6F0201D5
:101F400002013D51D8B4A7EF0FF0A9EF0FF003EF56
:101F500011F002013F6F060E020102013B6F020108
:101F60003F51020102013D51020102013E61BBEFFE
:101F70000FF0BDEF0FF019EF10F0020102013E511A
:101F8000020102013D5D02013F6F190E02013F5D3A
:101F9000D8A0CDEF0FF0CFEF0FF0E1EF0FF0000E74
:101FA00002010201346F000E02010201356F000EC2
:101FB00002010201366F3DC23EF23AC23CF217EF17
:101FC00010F00201D89002013737020138370201C0
:101FD0003937020102013D07020102013D510201B0
:101FE00002013E19D8B4F7EF0FF0F9EF0FF0FEEF52
:101FF0000FF0020102013B2FE1EF0FF00BEF10F0A9
:102000000201D89002013633020135330201343324
:10201000020102013E2B020102013D5102010201B7
:102020003E6315EF10F017EF10F000EF10F07CEFAB
:1020300010F0020102013E51020102013D19D8B423
:1020400024EF10F026EF10F07CEF10F002010201F7
:102050003D51020102013E5D02013F6F190E020176
:102060003F5DD8A036EF10F038EF10F046EF10F0DB
:10207000000E02010201376F000E02010201386FEB
:10208000000E02010201396F7CEF10F00201D890BE
:1020900002013437020135370201363702010201ED
:1020A0003E07020102013D51020102013E19D8B46E
:1020B0005CEF10F05EEF10F063EF10F00201020130
:1020C0003B2F46EF10F070EF10F00201D8900201A4
:1020D00039330201383302013733020102013D2B4B
:1020E000020102013D51020102013E637AEF10F04C
:1020F0007CEF10F065EF10F0020102013C51D8B402
:1021000084EF10F086EF10F09EEF10F0FF0E02014A
:102110000201341BFF0E02010201351BFF0E0201FA
:102120000201361B010E020102013427000E0201DA
:1021300002013523000E02010201362302010201D1
:102140003A51D8B4A6EF10F0A8EF10F0C0EF10F09D
:10215000FF0E02010201371BFF0E02010201381BB4
:10216000FF0E02010201391B010E02010201372795
:10217000000E020102013823000E02010201392380
:1021800002013F6F000E020102013C6F02013F514C
:10219000020102013751020102013427020102014A
:1021A00038510201020135230201020139510201B5
:1021B000020136230201020136AFE1EF10F0E3EF36
:1021C00010F003EF11F0FF0E02010201341BFF0EAD
:1021D00002010201351BFF0E02010201361B010E36
:1021E000020102013427000E020102013523000E14
:1021F00002010201362302013F6F010E02010201BA
:102200003C6F02013F513EC242F20201340E020114
:102210000201406F0201020E0201416F9FEC18F0B3
:10222000020102013C51D8B418EF11F01AEF11F07D
:1022300026EF11F0000E02010201341B000E020114
:102240000201351B800E02010201361B34C234F23A
:1022500035C235F236C236F22EEF11F01200000E02
:1022600002010201126F000E0201136F4DEF11F017
:102270000A0E02010201306F000E0201316F0EC220
:102280002EF20FC22FF2BCEC20F02EC20EF22FC2A3
:102290000FF202010201124B132BFF0E4224020126
:1022A000146F0201156BFF0E0201152302010201DA
:1022B0001351800A0201166F145102010201125DCE
:1022C00002011551800A02011659D8A06AEF11F0D7
:1022D0006CEF11F038EF11F0020102010D51800A8C
:1022E000800F0A0ED8B40C5DD8A079EF11F07BEF07
:1022F00011F0A2EF11F00A0E02010201306F000E80
:102300000201316F1CC02EF21DC02FF2BCEC20F078
:102310002EC21CF22FC21DF20CC21AF20DC21BF209
:102320000AEC1CF01AC21AF21BC21BF21CC01CF2EF
:102330001DC01DF209EC1AF01AC210F21BC211F2F4
:10234000A6EF11F00CC210F20DC211F2B5EF12F0AF
:10235000020102011151800A800F090ED8B4105DEC
:10236000D8B0B5EF11F0B7EF11F0F3EF11F00201B3
:102370000CC214F202010DC215F21C500201142706
:102380001D50020115231950060DF3CF16F2020E4F
:10239000020116270101CB0E02011625E96EEA6A39
:1023A0000101010EEA22EECF17F2EDCF18F2020181
:1023B0001851800A0201196F14510201175D0201C0
:1023C0001551800A02011959D8A0E9EF11F0EBEF7D
:1023D00011F0F3EF11F01C50020102010C271D5007
:1023E000020102010D23D7EF12F002010201115187
:1023F000800A800F010ED8B4105DD8A002EF12F051
:1024000004EF12F0F3EF11F01950060DF3CF14F2B0
:10241000040E020114270101CB0E02011425E96EFE
:10242000EA6A0101010EEA22EECF15F2EDCF16F2B3
:1024300002010CC217F202010DC218F21C50020177
:10244000175F1D500201185B02011851800A02013A
:10245000196F15510201175D02011651800A020120
:102460001959D8A036EF12F038EF12F040EF12F001
:102470001C50020102010C5F1D50020102010D5BA4
:10248000D7EF12F0482A0A0E02010201306F000E47
:102490000201316F1CC02EF21DC02FF2BCEC20F0E7
:1024A0002EC21CF02FC21DF0020102010F51800A42
:1024B0000201146F1C50020102010E5D1D50800AC2
:1024C00002011459D8B067EF12F069EF12F0F3EF80
:1024D00011F0010E1C6E000E1D6ED7EF12F0195098
:1024E000060D0101CB0EF324E96EEA6A0101010E2B
:1024F000EA22EF500201146F02011451196E1A6A98
:10250000010E1C6E000E1D6E0201146FC00E486E8F
:1025100002011451D7EF12F01950060DF3CF14F247
:10252000010E020114270101CB0E02011425E96EF0
:10253000EA6A0101010EEA22EF500201156F020161
:102540001551196E1A6A010E1C6E000E1D6E0201E5
:10255000146FC00E486E02011451D7EF12F0020E34
:10256000196E000E1A6ED7EF12F002010AC214F2B1
:1025700002010BC215F20201D1EF12F00201145157
:10258000010A01E1E5D6030A01E12FD7010A01E1C1
:1025900079D7070AA4E0010ABFE0030AE0E0D7EF19
:1025A00012F002011551000AE9E0D7EF12F00CC257
:1025B0000AF20DC20BF2DDEF12F0120077EC20F000
:1025C000010E4364E6EF12F0E8EF12F0CDEF13F0E6
:1025D0002BC031F22CC032F22DC033F23FC02EF2AC
:1025E00040C02FF241C030F2CEEC13F02EC20AF2FE
:1025F0002FC20BF230C20CF228C031F229C032F2E5
:102600002AC033F236C02EF237C02FF238C030F273
:10261000CEEC13F02EC20DF22FC20EF230C20FF22A
:102620000DC237F20EC238F20FC239F20AC234F2CA
:102630000BC235F20CC236F25EEC0FF034C210F26F
:1026400035C211F236C212F23CC031F23DC032F254
:102650003EC033F239C02EF23AC02FF23BC030F206
:10266000CEEC13F02EC237F22FC238F230C239F25C
:1026700010C234F211C235F212C236F25EEC0FF023
:1026800034C234F235C235F236C236F233C037F2D4
:1026900034C038F235C039F25EEC0FF034C220F0AD
:1026A00035C221F036C222F020C031F221C032F210
:1026B00022C033F2000E020102012E6F7A0E0201D7
:1026C00002012F6F440E02010201306FADEC1DF0CC
:1026D000D8B06DEF13F06FEF13F075EF13F0000E3D
:1026E000206E7A0E216E440E226E2250800A800FD8
:1026F00005E1000E215C02E1000E205CD8B083EF02
:1027000013F085EF13F08BEF13F0000E206E000E28
:10271000216E000E226E20C033F021C034F022C0A2
:1027200035F0000E02010201316F800E020102013C
:10273000326F3F0E02010201336F20C02EF221C022
:102740002FF222C030F2CEEC13F02EC213F22FC2C1
:1027500014F230C215F2E8EC17F013C226F014C2DE
:1027600027F02750800A7D0FE90ED8B4265CD8A048
:10277000BCEF13F0BEEF13F0C2EF13F0E80E266EBD
:10278000030E276E27AEC7EF13F0C9EF13F0CDEF9E
:1027900013F0000E266E000E276E1200000E0201CE
:1027A0000201376F000E02010201386F000E0201B4
:1027B0000201396F0201350E02010201426F02016E
:1027C000020E0201436F02012E0E02010201406F50
:1027D0000201020E0201416F6CEC1FF002010201C6
:1027E000346F0201360E02010201426F0201020E35
:1027F0000201436F0201310E02010201406F02012A
:10280000020E0201416F6CEC1FF002010201341B49
:10281000020102013651D8B410EF14F012EF14F097
:102820001BEF14F002010201356719EF14F01BEFE2
:1028300014F023EF14F037C22EF238C22FF239C24F
:1028400030F2BCEF14F00201020136517B0F02019D
:102850000201352702013A6F070E02010201366FAD
:1028600002013A51020102012EA139EF14F03BEFAF
:1028700014F04DEF14F00201020131510201020186
:1028800037270201020132510201020138230201FD
:10289000020133510201020139230201D8900201E1
:1028A000303302012F3302012E330201D89002018E
:1028B0003137020132370201333702010201362F6C
:1028C00032EF14F002013A6F090E02010201366F75
:1028D00002013A51020102012EA171EF14F073EFCF
:1028E00014F085EF14F002010201315102010201DE
:1028F000372702010201325102010201382302018D
:10290000020133510201020139230201D890020170
:10291000303302012F3302012E330201D89002011D
:102920003933020138330201373302010201362FF5
:102930006AEF14F035C242F20201370E02010201C1
:10294000406F0201020E0201416F9FEC18F002017C
:1029500002013451D8B4AFEF14F0B1EF14F0B4EF7A
:1029600014F002010201398F37C22EF238C22FF261
:1029700039C230F2BCEF14F01200000E0201020165
:10298000386F000E02010201396F000E02010201D0
:102990003A6F0201360E02010201426F0201020E7D
:1029A0000201436F02012E0E02010201406F02017B
:1029B000020E0201416F6CEC1FF002010201356F43
:1029C000020102013667E7EF14F0E9EF14F0F1EFCE
:1029D00014F038C22EF239C22FF23AC230F293EF1D
:1029E00015F00201340E02010201426F0201020ED3
:1029F0000201436F0201310E02010201406F020128
:102A0000020E0201416F6CEC1FF002010201376FF0
:102A10000201020134670FEF15F011EF15F019EF05
:102A200015F038C22EF239C22FF23AC230F293EFCB
:102A300015F0020102013451890F02010201365FD3
:102A400002010201375102010201351B02013B6FF5
:102A5000180E02010201376F02013B510201D890AA
:102A6000020138370201393702013A370201020107
:102A70003151020102012E5D0201020132510201B7
:102A800002012F59020102013351020102013059A2
:102A9000D8A04DEF15F04FEF15F064EF15F00201DF
:102AA00002013151020102012E5F02010201325185
:102AB000020102012F5B02010201335102010201F6
:102AC000305B0201020138810201D89002012E37E9
:102AD00002012F370201303702010201372F2EEF9A
:102AE00015F036C242F20201380E02010201406FB7
:102AF0000201020E0201416F9FEC18F00201020177
:102B00003551D8B486EF15F088EF15F08BEF15F03E
:102B1000020102013A8F38C22EF239C22FF23AC2B4
:102B200030F293EF15F01200640E020102011B6FE8
:102B3000000E02011C6F26EC20F002010A6F030E4A
:102B400002010201196F02010A5160EC1BF0FA0E3A
:102B5000020102011B6F000E02011C6F26EC20F027
:102B600002010A6F030E02010201196F02010A51EC
:102B700060EC1BF0FA0E020102011B6F000E020155
:102B80001C6F26EC20F002010A6F030E0201020105
:102B9000196F02010A5160EC1BF0FA0E02010201EA
:102BA0001B6F000E02011C6F26EC20F002010A6F61
:102BB000020E02010201196F02010A5160EC1BF0C2
:102BC000FA0E020102011B6F000E02011C6F26ECBF
:102BD00020F002010A6F280E02010201196F0201A2
:102BE0000A5160EC1BF0FA0E020102011B6F000E8D
:102BF00002011C6F26EC20F002010A6F280E020170
:102C00000201196F02010A5160EC1BF0FA0E020179
:102C100002011B6F000E02011C6F26EC20F0020166
:102C20000A6F280E02010201196F02010A5160ECBD
:102C30001BF0FA0E020102011B6F000E02011C6F55
:102C400026EC20F002010A6F0C0E02010201196F3E
:102C500002010A5160EC1BF0FA0E020102011B6F27
:102C6000000E02011C6F26EC20F002010A6F060E16
:102C700002010201196F02010A5160EC1BF0FA0E09
:102C8000020102011B6F000E02011C6F26EC20F0F6
:102C900002010A6F010E02010201196F02010A51BD
:102CA00060EC1BF0FA0E020102011B6F000E020124
:102CB0001C6F26EC20F01200000E020102010C6FC6
:102CC000000E02010D6F97EF16F080BC6AEF16F050
:102CD0006CEF16F06FEF16F0020102010C8180BE5E
:102CE00074EF16F076EF16F079EF16F0020102019C
:102CF0000C8382B07EEF16F080EF16F083EF16F0B3
:102D0000020102010C8582B288EF16F08AEF16F0FC
:102D10008DEF16F0020102010C8783B092EF16F0DE
:102D200094EF16F097EF16F0020102010C890201F0
:102D300002010D510C11D8B4A0EF16F0A2EF16F05D
:102D400065EF16F0020102010C51150A0D11D8A40D
:102D5000ACEF16F0AEEF16F0BBEF16F0020E196EE8
:102D6000000E1A6E000E020102010A6F000E02012F
:102D70000B6F23EF17F0020102010C050D11D8A40F
:102D8000C4EF16F0C6EF16F0CFEF16F0010E0201F9
:102D900002010A6F000E02010B6F23EF17F0020110
:102DA00002010C51020A0D11D8A4D9EF16F0DBEF85
:102DB00016F0E4EF16F0020E020102010A6F000E97
:102DC00002010B6F23EF17F0020102010C51040AFC
:102DD0000D11D8A4EEEF16F0F0EF16F0F9EF16F0A3
:102DE000030E020102010A6F000E02010B6F23EFB6
:102DF00017F0020102010C51080A0D11D8A403EFCB
:102E000017F005EF17F00EEF17F0040E02010201A4
:102E10000A6F000E02010B6F23EF17F0020102018F
:102E20000C51100A0D11D8A418EF17F01AEF17F073
:102E300023EF17F0050E020102010A6F000E0201D6
:102E40000B6F23EF17F01200000E020102010C6F4E
:102E5000000E02010D6F80BC30EF17F032EF17F05B
:102E600035EF17F0020102010C8180BE3AEF17F036
:102E70003CEF17F03FEF17F0020102010C8382B024
:102E800044EF17F046EF17F049EF17F00201020187
:102E90000C8582B24EEF17F050EF17F053EF17F09A
:102EA000020102010C8783B058EF17F05AEF17F0B8
:102EB0005DEF17F0020102010C89020102010C51C1
:102EC000150A0D11D8A467EF17F069EF17F076EF28
:102ED00017F0020E196E000E1A6E060E02010201A4
:102EE0000A6F000E02010B6FE7EF17F002010201FB
:102EF0000C050D11D8A47FEF17F081EF17F08AEFC2
:102F000017F0010E020102010A6F000E02010B6FA1
:102F1000E7EF17F0020102010C51020A0D11D8A4CB
:102F200094EF17F096EF17F09FEF17F0020E0201E3
:102F300002010A6F000E02010B6FE7EF17F00201AA
:102F400002010C51040A0D11D8A4A9EF17F0ABEF40
:102F500017F0B4EF17F0030E020102010A6F000E22
:102F600002010B6FE7EF17F0020102010C51080A92
:102F70000D11D8A4BEEF17F0C0EF17F0C9EF17F08E
:102F8000040E020102010A6F000E02010B6FE7EF4F
:102F900017F0020102010C51100A0D11D8A4D3EF51
:102FA00017F0D5EF17F0DEEF17F0050E0201020162
:102FB0000A6F000E02010B6FE7EF17F0070E020118
:102FC00002010A6F000E02010B6FE7EF17F012000B
:102FD0000201180E02010201426F0201020E0201FB
:102FE000436F0201130E02010201406F0201020E43
:102FF0000201416F6CEC1FF002010201176F020128
:103000000201135102010201196F02010201145160
:1030100002011A6F0201155102011B6F02011C6BA4
:103020008E0E02010201185F0201020118AF1BEFB0
:1030300018F01DEF18F049EF18F0020102011851C5
:10304000800A8F0FD8B027EF18F029EF18F038EF6B
:1030500018F0000E02010201136F000E0201146F3E
:10306000000E0201156F000E0201166F9EEF18F0A0
:103070000201D89002011C3302011B3302011A33F2
:103080000201193302010201183F38EF18F07AEFFC
:1030900018F01F0E02010201186551EF18F053EFEE
:1030A00018F062EF18F0000E02010201136F000E1B
:1030B0000201146F000E0201156F000E0201166F5F
:1030C0009EEF18F071EF18F00201D8900201193745
:1030D00002011A3702011B3702011C3702010201EB
:1030E000180702010201186778EF18F07AEF18F05C
:1030F00064EF18F0020102011751D8B482EF18F002
:1031000084EF18F094EF18F0020102011C1F020175
:103110001B1F02011A1F0201196D000E02011A2362
:1031200002011B2302011C2319C213F21AC214F25A
:103130001BC215F21CC216F29EEF18F0120002011B
:1031400002014251D8B4A7EF18F0A9EF18F0B7EF79
:1031500018F040C2E9FF41C2EAFFEE50EE10ED1058
:10316000D8A4B5EF18F0B7EF18F0C4EF18F040C2CC
:10317000E9FF41C2EAFF000EEE6E000EEE6E000E99
:10318000ED6EED5253EF19F0D3EF18F0020102018A
:10319000422B40C2E9FF41C2EAFFEC52EC52D89008
:1031A000ED32ED32EF3240C2E9FF41C2EAFFEE52AA
:1031B000EE52FE0EED14D8A4E0EF18F0E2EF18F096
:1031C000C6EF18F0FAEF18F002010201422B40C2DC
:1031D000E9FF41C2EAFFEE2A000EEE22ED22ED5297
:1031E00040C2E9FF41C2EAFFEC52EC52D890ED3206
:1031F000ED32EF3240C2E9FF41C2EAFFEE52EE5239
:10320000FF0EED14D8A407EF19F009EF19F0E4EF61
:1032100018F017EF19F002010201420740C2E9FF5E
:1032200041C2EAFFD890EE36EE36ED36ED5240C29E
:10323000E9FF41C2EAFFEECF43F2EECF44F2EECF18
:1032400045F2020144AF27EF19F029EF19F00BEF17
:1032500019F00201020142B130EF19F032EF19F01A
:103260003DEF19F040C2E9FF41C2EAFFFF0EEE1642
:103270007F0EEE16FF0EED16ED520201D89042338E
:103280000201020142510201456F446B436B40C28F
:10329000E9FF41C2EAFF02014351EE124451EE122E
:1032A0004551ED12ED521200020102016951D8B4EC
:1032B0005CEF19F05EEF19F06CEF19F067C2E9FFEF
:1032C00068C2EAFFEE50EE10ED10D8A46AEF19F0D4
:1032D0006CEF19F079EF19F067C2E9FF68C2EAFFF5
:1032E000000EEE6E000EEE6E000EED6EED5208EF6B
:1032F0001AF088EF19F002010201692B67C2E9FF99
:1033000068C2EAFFEC52EC52D890ED32ED32EF3267
:1033100067C2E9FF68C2EAFFEE52EE52FE0EED14FC
:10332000D8A495EF19F097EF19F07BEF19F0AFEFF4
:1033300019F002010201692B67C2E9FF68C2EAFFC6
:10334000EE2A000EEE22ED22ED5267C2E9FF68C2BE
:10335000EAFFEC52EC52D890ED32ED32EF3267C218
:10336000E9FF68C2EAFFEE52EE52FF0EED14D8A458
:10337000BCEF19F0BEEF19F099EF19F0CCEF19F08E
:1033800002010201690767C2E9FF68C2EAFFD8903B
:10339000EE36EE36ED36ED5267C2E9FF68C2EAFF5F
:1033A000EECF6AF2EECF6BF2EECF6CF202016BAFB2
:1033B000DCEF19F0DEEF19F0C0EF19F002010201A5
:1033C00069B1E5EF19F0E7EF19F0F2EF19F067C214
:1033D000E9FF68C2EAFFFF0EEE167F0EEE16FF0E43
:1033E000ED16ED520201D8906933020102016951D4
:1033F00002016C6F6B6B6A6B67C2E9FF68C2EAFF20
:1034000002016A51EE126B51EE126C51ED12ED5247
:1034100012000201226F000E020102011F6F020161
:103420002251020102011DAF18EF1AF01AEF1AF033
:1034300029EF1AF0020102011C6D02011D1FD8B014
:103440001D2B0201226F010E020102011F6F0201FA
:103450002251020102011BAF30EF1AF032EF1AF0D5
:103460003DEF1AF0020102011A6D02011B1FD8B0D4
:103470001B2B010E020102011F1B000E02010201A3
:10348000206F000E0201216F020102011D511C116B
:10349000D8B44DEF1AF04FEF1AF09EEF1AF0020178
:1034A000226F010E020102011E6F0201225162EF22
:1034B0001AF00201D89002011C3702011D370201E7
:1034C00002011E2B020102011DAF69EF1AF06BEF22
:1034D0001AF059EF1AF00201D890020120370201C8
:1034E0002137020102011C51020102011A5D020191
:1034F00002011D51020102011B59D8A082EF1AF0EE
:1035000084EF1AF093EF1AF0020102011C5102013C
:1035100002011A5F020102011D51020102011B5B3F
:103520000201020120810201D89002011D33020133
:103530001C33020102011E2F6BEF1AF0020102017F
:103540001F51D8B4A6EF1AF0A8EF1AF0AFEF1AF097
:1035500002010201206D0201211FD8B0212B20C2DF
:103560001AF221C21BF2B5EF1AF012008C8202018E
:10357000020119390F0B0F0B1B6E1BA001D08982A2
:103580001BB001D089921BC01AF2020E02011A1759
:10359000D89002011A3302011A31D8A001D08984CF
:1035A000D8B001D089941BC01AF2040E02011A1778
:1035B000D89002011A33D89002011A3302011A314D
:1035C000D8A001D08986D8B001D089961BC01AF244
:1035D000080E02011A17D89002011A33D89002017E
:1035E0001A33D89002011A3302011A31D8A001D03F
:1035F0008988D8B001D08998898A0A0E020102010F
:103600001B6F000E02011C6F26EC20F0899A02014C
:10361000020119510F0B1B6E1BA001D089821BB038
:1036200001D089921BC01AF2020E02011A17D8901B
:1036300002011A3302011A31D8A001D08984D8B00E
:1036400001D089941BC01AF2040E02011A17D890F7
:1036500002011A33D89002011A3302011A31D8A09C
:1036600001D08986D8B001D089961BC01AF2080E05
:1036700002011A17D89002011A33D89002011A33A6
:10368000D89002011A3302011A31D8A001D08988DA
:10369000D8B001D08998898A0A0E020102011B6FF5
:1036A000000E02011C6F26EC20F0899A050E020123
:1036B00002011B6F000E02011C6F26EC20F01200AD
:1036C0008C920201020119390F0B0F0B1B6E1BA00C
:1036D00001D089821BB001D089921BC01AF2020E60
:1036E00002011A17D89002011A3302011A31D8A028
:1036F00001D08984D8B001D089941BC01AF2040E7D
:1037000002011A17D89002011A33D89002011A3315
:1037100002011A31D8A001D08986D8B001D089968B
:103720001BC01AF2080E02011A17D89002011A33B0
:10373000D89002011A33D89002011A3302011A31CB
:10374000D8A001D08988D8B001D08998898A0A0E7A
:10375000020102011B6F000E02011C6F26EC20F01B
:10376000899A0201020119510F0B1B6E1BA001D097
:1037700089821BB001D089921BC01AF2020E02018D
:103780001A17D89002011A3302011A31D8A001D0B9
:103790008984D8B001D089941BC01AF2040E0201AA
:1037A0001A17D89002011A33D89002011A33020175
:1037B0001A31D8A001D08986D8B001D089961BC013
:1037C0001AF2080E02011A17D89002011A33D89083
:1037D00002011A33D89002011A3302011A31D8A01B
:1037E00001D08988D8B001D08998898A0A0E02014F
:1037F00002011B6F000E02011C6F26EC20F0899A5B
:10380000050E020102011B6F000E02011C6F26EC67
:1038100020F012000201206F000E020102011E6F53
:1038200002012051020102011BAF19EF1CF01BEF36
:103830001CF02AEF1CF0020102011A6D02011B1F8D
:10384000D8B01B2B0201206F010E020102011E6F76
:1038500002012051020102011DAF31EF1CF033EFD4
:103860001CF03AEF1CF0020102011C6D02011D1F49
:10387000D8B01D2B020102011D511C11D8B443EF19
:103880001CF045EF1CF08BEF1CF00201206F010EC5
:10389000020102011F6F0201205158EF1CF00201CA
:1038A000D89002011C3702011D37020102011F2BB3
:1038B000020102011DAF5FEF1CF061EF1CF04FEF42
:1038C0001CF0020102011C51020102011A5D0201F9
:1038D00002011D51020102011B59D8A072EF1CF018
:1038E00074EF1CF080EF1CF0020102011C51020178
:1038F00002011A5F020102011D51020102011B5B5C
:103900000201D89002011D3302011C3302010201A1
:103910001F2F61EF1CF0020102011E51D8B493EF7A
:103920001CF095EF1CF09CEF1CF0020102011A6DD7
:1039300002011B1FD8B01B2B1AC21AF21BC21BF2AA
:10394000A2EF1CF012000600EACF4BF2E1CF4CF2DE
:10395000E2CF4DF2D9CF4EF2DACF4FF2F3CF50F2A1
:10396000F4CF51F2F6CF52F2F7CF53F2F8CF54F230
:10397000F5CF55F2F2AABFEF1CF0C1EF1CF013EF28
:103980001DF0F2A4C6EF1CF0C8EF1CF013EF1DF001
:10399000F294F80ED76E300ED66E444A452A000EC9
:1039A00002010201586F800E02010201596F3F0EA1
:1039B000020102015A6F030E02010201566F000E4E
:1039C0000201576F48EC21F04550030AE80ED8B4C5
:1039D0004418D8A4EEEF1CF0F0EF1CF002EF1DF03D
:1039E000010E466E000E476E000E536E000E546EB2
:1039F000000E446E000E456E000E036E000E046E47
:103A0000000E056E27502610D8B409EF1DF00BEFFD
:103A10001DF011EF1DF02606D8A027068C9612EF98
:103A20001DF08C86F29455C2F5FF54C2F8FF53C2C4
:103A3000F7FF52C2F6FF51C2F4FF50C2F3FF4FC26C
:103A4000DAFF4EC2D9FF4DC2E2FF4CC2E1FF4BC2CA
:103A5000EAFF4AC2E9FF49C2FBFF48C2FAFF110070
:103A600006C023F007C024F008C025F01F0E020195
:103A70000201316FA50E02010201326F410E0201F7
:103A80000201336F23C02EF224C02FF225C030F282
:103A9000CEEC13F02EC22EF22FC22FF230C230F233
:103AA000800E02010201316F030E02010201326F2A
:103AB000440E02010201336FBDEC14F02EC223F05C
:103AC0002FC224F030C225F01F501E10D8A46BEF77
:103AD0001DF06DEF1DF084EF1DF0570E0201020185
:103AE000136F000E0201146F23C010F224C011F2F4
:103AF00025C012F256EC0BF010C20DF211C20EF2FC
:103B000012C20FF2A4EF1DF01E041F10D8A48BEFF9
:103B10001DF08DEF1DF0A4EF1DF00101110E02014B
:103B20000201136F0101010E0201146F23C010F294
:103B300024C011F225C012F256EC0BF010C20DF2A7
:103B400011C20EF212C20FF20DC20AF20EC20BF235
:103B50000FC20CF2ACEF1DF012000201020130AFF7
:103B6000B4EF1DF0B6EF1DF0D2EF1DF0000E346F74
:103B7000000E356F800E366F020102012E510201D8
:103B8000345D020102012E6F020102012F51020178
:103B9000355902012F6F02010201305102013659DD
:103BA0000201306F0201020133AFD9EF1DF0DBEFEC
:103BB0001DF0F7EF1DF0000E346F000E356F800E14
:103BC000366F0201020131510201345D020102012E
:103BD000316F020102013251020135590201326F87
:103BE000020102013351020136590201336F000E06
:103BF000020102012E1B000E020102012F1B800E8A
:103C000002010201301B000E02010201311B000EF5
:103C100002010201321B800E02010201331B02016C
:103C200002013151020102012E5D020102013251F5
:103C3000020102012F590201020133510201020166
:103C4000305923EF1EF01200020102010B510A113C
:103C5000D8A42DEF1EF02FEF1EF03DEF1EF0000E4A
:103C6000020102010A6F000E020102010B6F000E39
:103C7000020102010C6F92EF1EF0020102010AC262
:103C80000DF2020102010BC20EF2020102010F6BE2
:103C900002010EBF0F07020102010BAF52EF1EF02F
:103CA00054EF1EF060EF1EF0020102010F1F02012F
:103CB0000E1F02010D6D000E02010E2302010F23E3
:103CC0000201106F8E0E02010201426F02011051BB
:103CD00002010D0E02010201406F0201020E0201FB
:103CE000416F9FEC18F0020102010BAF7AEF1EF05A
:103CF0007CEF1EF08AEF1EF00DC211F20EC212F21E
:103D00000FC213F225EC21F011C20DF212C20EF215
:103D100013C20FF20DC20AF20EC20BF20FC20CF266
:103D200092EF1EF01200050E020102011B6F000E41
:103D300002011C6F26EC20F014C219F260EC1BF09B
:103D4000050E020102011B6F000E02011C6F26EC22
:103D500020F0000E02010201156F000E0201166F25
:103D6000020102011551100A1611D8A4BAEF1EF073
:103D7000BCEF1EF0BEEF1EF0FFEF1EF002010201CD
:103D800015510201020112250201176FE86A0201B2
:103D9000020115BFE8680201020113210201186F38
:103DA00017C2F6FF18C2F7FF000EF86E0F0EF76489
:103DB00003D00800F55005D0F6CFE9FFF7CFEAFFB2
:103DC000EF5002010201196FB6EC1AF0020E020167
:103DD00002011B6F000E02011C6F26EC20F0020195
:103DE0000201154B162B020102011551100A161182
:103DF000D8A4FDEF1EF0FFEF1EF0BEEF1EF001EFA6
:103E00001FF01200020102010C51422402010201C2
:103E10000D6F02010E6B02010E373FEF1FF0090E0E
:103E2000020102010D25E96EEA6A000EEA220A0E7D
:103E3000020102011C6F000E02011D6F0AC21AF27C
:103E40000BC21BF20AEC1CF0020102011A51300FE6
:103E5000EF6E0A0E020102011C6F000E02011D6FBF
:103E60000AC21AF20BC21BF209EC1AF01AC20AF2C9
:103E70001BC20BF2020102010D07D8A00E070201BE
:103E80000CC20FF20201106B02011051800A0201F4
:103E9000116F02010D5102010F5D020102010E516D
:103EA000800A02011159D8A058EF1FF05AEF1FF0F5
:103EB0000FEF1FF002010F6FC00E02010201146F1D
:103EC00002010F51090E02010201126F000E0201E0
:103ED000136F93EC1EF0120040C2E9FF41C2EAFFEB
:103EE000010EEB34020EEB3402010201446F42C2B8
:103EF000E9FF43C2EAFF020144C2EFFF02010201EF
:103F0000446785EF1FF087EF1FF095EF1FF040C269
:103F1000E9FF41C2EAFF000EEE6E000EEE6E000EEB
:103F2000ED6EED52000EC8EF1FF00201456F000E5E
:103F300002010201446F0201455140C2E9FF41C242
:103F4000EAFF010EEB8E40C2E9FF41C2EAFFEECF6D
:103F500045F2EECF46F2EECF47F2020147AFB3EFA4
:103F60001FF0B5EF1FF0B8EF1FF002010201442B64
:103F700040C2E9FF41C2EAFFFF0EEE16FF0EEE1649
:103F8000000EED16ED52020102014451C8EF1FF080
:103F9000120067C2E9FF68C2EAFF010EEB34020EAD
:103FA000EB34020102016B6F69C2E9FF6AC2EAFFEA
:103FB00002016BC2EFFF020102016B67E2EF1FF02B
:103FC000E4EF1FF0F2EF1FF067C2E9FF68C2EAFFFB
:103FD000000EEE6E000EEE6E000EED6EED52000E57
:103FE00025EF20F002016C6F000E020102016B6FE1
:103FF00002016C5167C2E9FF68C2EAFF010EEB8E55
:1040000067C2E9FF68C2EAFFEECF6CF2EECF6DF255
:10401000EECF6EF202016EAF10EF20F012EF20F043
:1040200015EF20F0020102016B2B67C2E9FF68C2A5
:10403000EAFFFF0EEE16FF0EEE16000EED16ED5225
:10404000020102016B5125EF20F01200000E020167
:1040500002011D6F000E02011E6F5EEF20F0000EC8
:10406000020102011F6F000E0201206F0201020116
:104070002051800A800F320ED8B41F5DD8A043EFC4
:1040800020F045EF20F047EF20F05AEF20F002013A
:1040900002011F4B202B020102012051800A800FD8
:1040A000320ED8B41F5DD8A058EF20F05AEF20F0A0
:1040B00047EF20F0020102011D4B1E2B02010201FD
:1040C0001E51800A0201216F02011B5102010201EF
:1040D0001D5D020102011C51800A02012159D8A074
:1040E00074EF20F076EF20F02FEF20F01200B0EF09
:1040F00020F0ADEC21F013C23CF014C23DF015C22B
:104100003EF0432ABBEF20F0ADEC21F013C228F0C3
:1041100014C229F015C22AF0432ABBEF20F0ADECFF
:1041200021F013C22BF014C22CF015C22DF0432A3B
:10413000BBEF20F0ADEC21F013C22BF014C22CF039
:1041400015C22DF028C03CF029C03DF02AC03EF039
:104150002BC028F02CC029F02DC02AF0BBEF20F096
:104160004350000AC6E0010ACFE0030AD8E0010A82
:10417000E1E0BBEF20F01200000E02010201326FFD
:10418000000E0201336F020102012EA1CAEF20F0DE
:10419000CCEF20F0D8EF20F00201020130510201F3
:1041A00002013227020102013151020102013323CF
:1041B0000201D89002013037020131370201D89054
:1041C00002012F3302012E33020102012F512E1161
:1041D000D8A4EDEF20F0EFEF20F0C3EF20F032C2D3
:1041E0002EF233C22FF2F5EF20F012009E9CC28017
:1041F0000A0E020102011B6F000E02011C6F26EC69
:1042000020F0C28204EF21F09EAC09EF21F00BEF09
:1042100021F004EF21F09E9CC290C4CF31F0326AAD
:104220003150326E316AC3503126000E3222FF0EF9
:104230003114316E030E3214326E9E9C31C00AF27C
:1042400032C00BF224EF21F01200020102011151E1
:104250000201121102011311D8B431EF21F033EF32
:1042600021F03FEF21F0000E02010201111B000EB0
:1042700002010201121B800E02010201131B11C276
:1042800011F212C212F213C213F247EF21F0120020
:1042900058C25EF259C25FF25AC260F256C2E9FFDA
:1042A00057C2EAFF0201EECF5BF20201EECF5CF2F1
:1042B0000201EDCF5DF28DEC0DF056C2E9FF57C261
:1042C000EAFF5BC2EEFF5CC2EEFF5DC2EDFFED52A6
:1042D0006AEF21F01200000E02010201311B000EF4
:1042E00002010201321B800E02010201331B31C2A6
:1042F00037F232C238F233C239F22EC234F22FC250
:1043000035F230C236F25EEC0FF034C22EF235C216
:104310002FF236C230F28DEF21F012001F501E1026
:10432000D8A495EF21F097EF21F09DEF21F08A823C
:104330008A808C9E8C9C8C9A8C981E041F10D8A40A
:10434000A4EF21F0A6EF21F0ACEF21F08A928A9041
:104350008C9E8C8C8C9A8C9812002EC031F22FC0BF
:1043600032F230C033F200C02EF201C02FF202C090
:1043700030F26BEC21F02EC216F22FC217F230C2CF
:1043800018F216C213F217C214F218C215F2C9EFCE
:1043900021F01200000EC26E02010A6F0E0EC16EF5
:1043A00002010A5102010A6FA80EC06E02010A51F1
:1043B0009E9CF28E050E020102011B6F000E02018F
:1043C0001C6F26EC20F0C2821200000E3F6E500ED1
:1043D000406E420E416E000E366E480E376EC20EB3
:1043E000386E000E396E000E3A6E000E3B6E000EF7
:1043F000336EFA0E346E430E356E120002010A6FF0
:10440000080ED56E02010A51F80ED76E300ED66E28
:0A441000F28EF28CF28AD58E1200B3
:020000040030CA
:0E000000FF38F9FEFF79BEFFFFFFFFFFFFBFD5
:00000001FF
